{
  "_format": "hh-sol-artifact-1",
  "contractName": "FruitVoting",
  "sourceName": "contracts/FruitVoting.sol",
  "abi": [
    {
      "inputs": [],
      "stateMutability": "nonpayable",
      "type": "constructor"
    },
    {
      "anonymous": false,
      "inputs": [
        {
          "indexed": false,
          "internalType": "string",
          "name": "fruit",
          "type": "string"
        }
      ],
      "name": "FruitAdded",
      "type": "event"
    },
    {
      "anonymous": false,
      "inputs": [
        {
          "indexed": true,
          "internalType": "string",
          "name": "fruit",
          "type": "string"
        },
        {
          "indexed": false,
          "internalType": "uint256",
          "name": "votes",
          "type": "uint256"
        }
      ],
      "name": "FruitVoted",
      "type": "event"
    },
    {
      "anonymous": false,
      "inputs": [],
      "name": "VoteRestarted",
      "type": "event"
    },
    {
      "anonymous": false,
      "inputs": [
        {
          "indexed": false,
          "internalType": "string",
          "name": "winner",
          "type": "string"
        },
        {
          "indexed": false,
          "internalType": "uint256",
          "name": "votes",
          "type": "uint256"
        }
      ],
      "name": "WinnerAnnounced",
      "type": "event"
    },
    {
      "inputs": [
        {
          "internalType": "string",
          "name": "newFruit",
          "type": "string"
        }
      ],
      "name": "addFruit",
      "outputs": [],
      "stateMutability": "nonpayable",
      "type": "function"
    },
    {
      "inputs": [
        {
          "internalType": "uint256",
          "name": "",
          "type": "uint256"
        }
      ],
      "name": "fruitNames",
      "outputs": [
        {
          "internalType": "string",
          "name": "",
          "type": "string"
        }
      ],
      "stateMutability": "view",
      "type": "function"
    },
    {
      "inputs": [
        {
          "internalType": "string",
          "name": "",
          "type": "string"
        }
      ],
      "name": "fruitVotes",
      "outputs": [
        {
          "internalType": "uint256",
          "name": "",
          "type": "uint256"
        }
      ],
      "stateMutability": "view",
      "type": "function"
    },
    {
      "inputs": [],
      "name": "getFruitNames",
      "outputs": [
        {
          "internalType": "string[]",
          "name": "",
          "type": "string[]"
        }
      ],
      "stateMutability": "view",
      "type": "function"
    },
    {
      "inputs": [
        {
          "internalType": "string",
          "name": "fruit",
          "type": "string"
        }
      ],
      "name": "getVotesForFruit",
      "outputs": [
        {
          "internalType": "uint256",
          "name": "",
          "type": "uint256"
        }
      ],
      "stateMutability": "view",
      "type": "function"
    },
    {
      "inputs": [],
      "name": "getWinner",
      "outputs": [
        {
          "internalType": "string",
          "name": "",
          "type": "string"
        },
        {
          "internalType": "uint256",
          "name": "",
          "type": "uint256"
        }
      ],
      "stateMutability": "view",
      "type": "function"
    },
    {
      "inputs": [],
      "name": "maxVotes",
      "outputs": [
        {
          "internalType": "uint256",
          "name": "",
          "type": "uint256"
        }
      ],
      "stateMutability": "view",
      "type": "function"
    },
    {
      "inputs": [],
      "name": "owner",
      "outputs": [
        {
          "internalType": "address",
          "name": "",
          "type": "address"
        }
      ],
      "stateMutability": "view",
      "type": "function"
    },
    {
      "inputs": [],
      "name": "restartVoting",
      "outputs": [],
      "stateMutability": "nonpayable",
      "type": "function"
    },
    {
      "inputs": [
        {
          "internalType": "string",
          "name": "fruit",
          "type": "string"
        }
      ],
      "name": "voteForFruit",
      "outputs": [],
      "stateMutability": "nonpayable",
      "type": "function"
    },
    {
      "inputs": [],
      "name": "winnerFruit",
      "outputs": [
        {
          "internalType": "string",
          "name": "",
          "type": "string"
        }
      ],
      "stateMutability": "view",
      "type": "function"
    }
  ],
  "bytecode": "0x608060405260006003553480156200001657600080fd5b5033600460006101000a81548173ffffffffffffffffffffffffffffffffffffffff021916908373ffffffffffffffffffffffffffffffffffffffff160217905550600080600181540180825580915050600190039060005260206000200160006040518060400160405280600581526020017f4170706c6500000000000000000000000000000000000000000000000000000081525090919091509081620000c0919062000481565b50600080600181540180825580915050600190039060005260206000200160006040518060400160405280600681526020017f42616e616e6100000000000000000000000000000000000000000000000000008152509091909150908162000129919062000481565b50600080600181540180825580915050600190039060005260206000200160006040518060400160405280600681526020017f43686572727900000000000000000000000000000000000000000000000000008152509091909150908162000192919062000481565b5060005b60008054905081101562000200576000600160008381548110620001bf57620001be62000568565b5b90600052602060002001604051620001d8919062000631565b9081526020016040518091039020819055508080620001f79062000679565b91505062000196565b50620006c6565b600081519050919050565b7f4e487b7100000000000000000000000000000000000000000000000000000000600052604160045260246000fd5b7f4e487b7100000000000000000000000000000000000000000000000000000000600052602260045260246000fd5b600060028204905060018216806200028957607f821691505b6020821081036200029f576200029e62000241565b5b50919050565b60008190508160005260206000209050919050565b60006020601f8301049050919050565b600082821b905092915050565b600060088302620003097fffffffffffffffffffffffffffffffffffffffffffffffffffffffffffffffff82620002ca565b620003158683620002ca565b95508019841693508086168417925050509392505050565b6000819050919050565b6000819050919050565b6000620003626200035c62000356846200032d565b62000337565b6200032d565b9050919050565b6000819050919050565b6200037e8362000341565b620003966200038d8262000369565b848454620002d7565b825550505050565b600090565b620003ad6200039e565b620003ba81848462000373565b505050565b5b81811015620003e257620003d6600082620003a3565b600181019050620003c0565b5050565b601f8211156200043157620003fb81620002a5565b6200040684620002ba565b8101602085101562000416578190505b6200042e6200042585620002ba565b830182620003bf565b50505b505050565b600082821c905092915050565b6000620004566000198460080262000436565b1980831691505092915050565b600062000471838362000443565b9150826002028217905092915050565b6200048c8262000207565b67ffffffffffffffff811115620004a857620004a762000212565b5b620004b4825462000270565b620004c1828285620003e6565b600060209050601f831160018114620004f95760008415620004e4578287015190505b620004f0858262000463565b86555062000560565b601f1984166200050986620002a5565b60005b8281101562000533578489015182556001820191506020850194506020810190506200050c565b868310156200055357848901516200054f601f89168262000443565b8355505b6001600288020188555050505b505050505050565b7f4e487b7100000000000000000000000000000000000000000000000000000000600052603260045260246000fd5b600081905092915050565b60008154620005b18162000270565b620005bd818662000597565b94506001821660008114620005db5760018114620005f15762000628565b60ff198316865281151582028601935062000628565b620005fc85620002a5565b60005b838110156200062057815481890152600182019150602081019050620005ff565b838801955050505b50505092915050565b60006200063f8284620005a2565b915081905092915050565b7f4e487b7100000000000000000000000000000000000000000000000000000000600052601160045260246000fd5b600062000686826200032d565b91507fffffffffffffffffffffffffffffffffffffffffffffffffffffffffffffffff8203620006bb57620006ba6200064a565b5b600182019050919050565b611ade80620006d66000396000f3fe608060405234801561001057600080fd5b50600436106100a95760003560e01c8063798550231161007157806379855023146101405780638da5cb5b1461015e5780638e7ea5b21461017c5780639f4ff52c1461019b578063a0f92fdf146101cb578063fdcd2d58146101fb576100a9565b806324050cd9146100ae578063490b8c84146100ca5780636b4fdea2146100d45780636d7e263f146100f2578063777c3acf14610122575b600080fd5b6100c860048036038101906100c39190610d83565b610217565b005b6100d2610337565b005b6100dc610501565b6040516100e99190610f0d565b60405180910390f35b61010c60048036038101906101079190610d83565b6105da565b6040516101199190610f48565b60405180910390f35b61012a61068d565b6040516101379190610f48565b60405180910390f35b610148610693565b6040516101559190610fad565b60405180910390f35b610166610721565b6040516101739190611010565b60405180910390f35b610184610747565b60405161019292919061102b565b60405180910390f35b6101b560048036038101906101b09190611087565b6107e4565b6040516101c29190610fad565b60405180910390f35b6101e560048036038101906101e09190610d83565b610890565b6040516101f29190610f48565b60405180910390f35b61021560048036038101906102109190610d83565b6108be565b005b600081511161025b576040517f08c379a000000000000000000000000000000000000000000000000000000000815260040161025290611100565b60405180910390fd5b61026481610a86565b156102a4576040517f08c379a000000000000000000000000000000000000000000000000000000000815260040161029b9061116c565b60405180910390fd5b6000819080600181540180825580915050600190039060005260206000200160009091909190915090816102d89190611398565b5060006001826040516102eb91906114a6565b9081526020016040518091039020819055507f22e721d79437daecf03e5b6afd8cb9c9c026ae12e6d0c43f9a0d702fd7e7f9f28160405161032c9190610fad565b60405180910390a150565b600460009054906101000a900473ffffffffffffffffffffffffffffffffffffffff1673ffffffffffffffffffffffffffffffffffffffff163373ffffffffffffffffffffffffffffffffffffffff16146103c7576040517f08c379a00000000000000000000000000000000000000000000000000000000081526004016103be9061152f565b60405180910390fd5b60036000805490501161040f576040517f08c379a00000000000000000000000000000000000000000000000000000000081526004016104069061159b565b60405180910390fd5b60005b600381101561046f576000600160008381548110610433576104326115bb565b5b9060005260206000200160405161044a919061166d565b9081526020016040518091039020819055508080610467906116b3565b915050610412565b506000600160008054905061048491906116fb565b90505b600381106104ab5761049881610b03565b80806104a39061172f565b915050610487565b5060405180602001604052806000815250600290816104ca9190611398565b5060006003819055507f6706e104ba43f27f0b9d0ae1927ef1de3a4affa07ebeeb61af31d4bc7a04a8b960405160405180910390a1565b60606000805480602002602001604051908101604052809291908181526020016000905b828210156105d1578382906000526020600020018054610544906111bb565b80601f0160208091040260200160405190810160405280929190818152602001828054610570906111bb565b80156105bd5780601f10610592576101008083540402835291602001916105bd565b820191906000526020600020905b8154815290600101906020018083116105a057829003601f168201915b505050505081526020019060010190610525565b50505050905090565b60008082511161061f576040517f08c379a000000000000000000000000000000000000000000000000000000000815260040161061690611100565b60405180910390fd5b61062882610a86565b610667576040517f08c379a000000000000000000000000000000000000000000000000000000000815260040161065e906117a4565b60405180910390fd5b60018260405161067791906114a6565b9081526020016040518091039020549050919050565b60035481565b600280546106a0906111bb565b80601f01602080910402602001604051908101604052809291908181526020018280546106cc906111bb565b80156107195780601f106106ee57610100808354040283529160200191610719565b820191906000526020600020905b8154815290600101906020018083116106fc57829003601f168201915b505050505081565b600460009054906101000a900473ffffffffffffffffffffffffffffffffffffffff1681565b60606000600260035481805461075c906111bb565b80601f0160208091040260200160405190810160405280929190818152602001828054610788906111bb565b80156107d55780601f106107aa576101008083540402835291602001916107d5565b820191906000526020600020905b8154815290600101906020018083116107b857829003601f168201915b50505050509150915091509091565b600081815481106107f457600080fd5b90600052602060002001600091509050805461080f906111bb565b80601f016020809104026020016040519081016040528092919081815260200182805461083b906111bb565b80156108885780601f1061085d57610100808354040283529160200191610888565b820191906000526020600020905b81548152906001019060200180831161086b57829003601f168201915b505050505081565b6001818051602081018201805184825260208301602085012081835280955050505050506000915090505481565b6000815111610902576040517f08c379a00000000000000000000000000000000000000000000000000000000081526004016108f990611100565b60405180910390fd5b61090b81610a86565b61094a576040517f08c379a0000000000000000000000000000000000000000000000000000000008152600401610941906117a4565b60405180910390fd5b60018160405161095a91906114a6565b90815260200160405180910390206000815480929190610979906116b3565b91905055508060405161098c91906114a6565b60405180910390207f3b8360669ef0e1c8615314da51415280a4403d5477448fe8abe155becc707e776001836040516109c591906114a6565b9081526020016040518091039020546040516109e19190610f48565b60405180910390a26003546001826040516109fc91906114a6565b9081526020016040518091039020541115610a8357600181604051610a2191906114a6565b9081526020016040518091039020546003819055508060029081610a459190611398565b507fb1a01b22f51de76267702340dcbbe92d7ef8f62107b13f658efc7a051192af196002600354604051610a7a929190611848565b60405180910390a15b50565b600080600090505b600080549050811015610af857828051906020012060008281548110610ab757610ab66115bb565b5b90600052602060002001604051610ace919061191b565b604051809103902003610ae5576001915050610afe565b8080610af0906116b3565b915050610a8e565b50600090505b919050565b600080549050811015610bc95760008190505b6001600080549050610b2891906116fb565b811015610b97576000600182610b3e9190611932565b81548110610b4f57610b4e6115bb565b5b9060005260206000200160008281548110610b6d57610b6c6115bb565b5b906000526020600020019081610b839190611991565b508080610b8f906116b3565b915050610b16565b506000805480610baa57610ba9611a79565b5b600190038181906000526020600020016000610bc69190610bcc565b90555b50565b508054610bd8906111bb565b6000825580601f10610bea5750610c09565b601f016020900490600052602060002090810190610c089190610c0c565b5b50565b5b80821115610c25576000816000905550600101610c0d565b5090565b6000604051905090565b600080fd5b600080fd5b600080fd5b600080fd5b6000601f19601f8301169050919050565b7f4e487b7100000000000000000000000000000000000000000000000000000000600052604160045260246000fd5b610c9082610c47565b810181811067ffffffffffffffff82111715610caf57610cae610c58565b5b80604052505050565b6000610cc2610c29565b9050610cce8282610c87565b919050565b600067ffffffffffffffff821115610cee57610ced610c58565b5b610cf782610c47565b9050602081019050919050565b82818337600083830152505050565b6000610d26610d2184610cd3565b610cb8565b905082815260208101848484011115610d4257610d41610c42565b5b610d4d848285610d04565b509392505050565b600082601f830112610d6a57610d69610c3d565b5b8135610d7a848260208601610d13565b91505092915050565b600060208284031215610d9957610d98610c33565b5b600082013567ffffffffffffffff811115610db757610db6610c38565b5b610dc384828501610d55565b91505092915050565b600081519050919050565b600082825260208201905092915050565b6000819050602082019050919050565b600081519050919050565b600082825260208201905092915050565b60005b83811015610e32578082015181840152602081019050610e17565b60008484015250505050565b6000610e4982610df8565b610e538185610e03565b9350610e63818560208601610e14565b610e6c81610c47565b840191505092915050565b6000610e838383610e3e565b905092915050565b6000602082019050919050565b6000610ea382610dcc565b610ead8185610dd7565b935083602082028501610ebf85610de8565b8060005b85811015610efb5784840389528151610edc8582610e77565b9450610ee783610e8b565b925060208a01995050600181019050610ec3565b50829750879550505050505092915050565b60006020820190508181036000830152610f278184610e98565b905092915050565b6000819050919050565b610f4281610f2f565b82525050565b6000602082019050610f5d6000830184610f39565b92915050565b600082825260208201905092915050565b6000610f7f82610df8565b610f898185610f63565b9350610f99818560208601610e14565b610fa281610c47565b840191505092915050565b60006020820190508181036000830152610fc78184610f74565b905092915050565b600073ffffffffffffffffffffffffffffffffffffffff82169050919050565b6000610ffa82610fcf565b9050919050565b61100a81610fef565b82525050565b60006020820190506110256000830184611001565b92915050565b600060408201905081810360008301526110458185610f74565b90506110546020830184610f39565b9392505050565b61106481610f2f565b811461106f57600080fd5b50565b6000813590506110818161105b565b92915050565b60006020828403121561109d5761109c610c33565b5b60006110ab84828501611072565b91505092915050565b7f4672756974206e616d652063616e6e6f7420626520656d707479000000000000600082015250565b60006110ea601a83610f63565b91506110f5826110b4565b602082019050919050565b60006020820190508181036000830152611119816110dd565b9050919050565b7f467275697420616c726561647920657869737473000000000000000000000000600082015250565b6000611156601483610f63565b915061116182611120565b602082019050919050565b6000602082019050818103600083015261118581611149565b9050919050565b7f4e487b7100000000000000000000000000000000000000000000000000000000600052602260045260246000fd5b600060028204905060018216806111d357607f821691505b6020821081036111e6576111e561118c565b5b50919050565b60008190508160005260206000209050919050565b60006020601f8301049050919050565b600082821b905092915050565b60006008830261124e7fffffffffffffffffffffffffffffffffffffffffffffffffffffffffffffffff82611211565b6112588683611211565b95508019841693508086168417925050509392505050565b6000819050919050565b600061129561129061128b84610f2f565b611270565b610f2f565b9050919050565b6000819050919050565b6112af8361127a565b6112c36112bb8261129c565b84845461121e565b825550505050565b600090565b6112d86112cb565b6112e38184846112a6565b505050565b5b81811015611307576112fc6000826112d0565b6001810190506112e9565b5050565b601f82111561134c5761131d816111ec565b61132684611201565b81016020851015611335578190505b61134961134185611201565b8301826112e8565b50505b505050565b600082821c905092915050565b600061136f60001984600802611351565b1980831691505092915050565b6000611388838361135e565b9150826002028217905092915050565b6113a182610df8565b67ffffffffffffffff8111156113ba576113b9610c58565b5b6113c482546111bb565b6113cf82828561130b565b600060209050601f83116001811461140257600084156113f0578287015190505b6113fa858261137c565b865550611462565b601f198416611410866111ec565b60005b8281101561143857848901518255600182019150602085019450602081019050611413565b868310156114555784890151611451601f89168261135e565b8355505b6001600288020188555050505b505050505050565b600081905092915050565b600061148082610df8565b61148a818561146a565b935061149a818560208601610e14565b80840191505092915050565b60006114b28284611475565b915081905092915050565b7f4f6e6c7920746865206f776e65722063616e2063616c6c20746869732066756e60008201527f6374696f6e000000000000000000000000000000000000000000000000000000602082015250565b6000611519602583610f63565b9150611524826114bd565b604082019050919050565b600060208201905081810360008301526115488161150c565b9050919050565b7f4e6f2065787472612066727569747320746f2072656d6f76652e000000000000600082015250565b6000611585601a83610f63565b91506115908261154f565b602082019050919050565b600060208201905081810360008301526115b481611578565b9050919050565b7f4e487b7100000000000000000000000000000000000000000000000000000000600052603260045260246000fd5b600081546115f7816111bb565b611601818661146a565b9450600182166000811461161c576001811461163157611664565b60ff1983168652811515820286019350611664565b61163a856111ec565b60005b8381101561165c5781548189015260018201915060208101905061163d565b838801955050505b50505092915050565b600061167982846115ea565b915081905092915050565b7f4e487b7100000000000000000000000000000000000000000000000000000000600052601160045260246000fd5b60006116be82610f2f565b91507fffffffffffffffffffffffffffffffffffffffffffffffffffffffffffffffff82036116f0576116ef611684565b5b600182019050919050565b600061170682610f2f565b915061171183610f2f565b925082820390508181111561172957611728611684565b5b92915050565b600061173a82610f2f565b91506000820361174d5761174c611684565b5b600182039050919050565b7f496e76616c696420667275697400000000000000000000000000000000000000600082015250565b600061178e600d83610f63565b915061179982611758565b602082019050919050565b600060208201905081810360008301526117bd81611781565b9050919050565b600081546117d1816111bb565b6117db8186610f63565b945060018216600081146117f6576001811461180c5761183f565b60ff19831686528115156020028601935061183f565b611815856111ec565b60005b8381101561183757815481890152600182019150602081019050611818565b808801955050505b50505092915050565b6000604082019050818103600083015261186281856117c4565b90506118716020830184610f39565b9392505050565b600081905092915050565b60008190508160005260206000209050919050565b600081546118a5816111bb565b6118af8186611878565b945060018216600081146118ca57600181146118df57611912565b60ff1983168652811515820286019350611912565b6118e885611883565b60005b8381101561190a578154818901526001820191506020810190506118eb565b838801955050505b50505092915050565b60006119278284611898565b915081905092915050565b600061193d82610f2f565b915061194883610f2f565b92508282019050808211156119605761195f611684565b5b92915050565b600081549050611975816111bb565b9050919050565b60008190508160005260206000209050919050565b81810361199f575050611a77565b6119a882611966565b67ffffffffffffffff8111156119c1576119c0610c58565b5b6119cb82546111bb565b6119d682828561130b565b6000601f831160018114611a0557600084156119f3578287015490505b6119fd858261137c565b865550611a70565b601f198416611a138761197c565b9650611a1e866111ec565b60005b82811015611a4657848901548255600182019150600185019450602081019050611a21565b86831015611a635784890154611a5f601f89168261135e565b8355505b6001600288020188555050505b5050505050505b565b7f4e487b7100000000000000000000000000000000000000000000000000000000600052603160045260246000fdfea26469706673582212200c367678c7ba4e0fb171982351c3becce3296b955aff59f82232b4f14bf303ab64736f6c63430008130033",
  "linkReferences": {},
  "deployedLinkReferences": {}
}